{
  "contractName": "SBT",
  "abi": [
    {
      "inputs": [],
      "stateMutability": "nonpayable",
      "type": "constructor"
    },
    {
      "anonymous": false,
      "inputs": [
        {
          "indexed": true,
          "internalType": "address",
          "name": "owner",
          "type": "address"
        },
        {
          "indexed": true,
          "internalType": "address",
          "name": "approved",
          "type": "address"
        },
        {
          "indexed": true,
          "internalType": "uint256",
          "name": "tokenId",
          "type": "uint256"
        }
      ],
      "name": "Approval",
      "type": "event"
    },
    {
      "anonymous": false,
      "inputs": [
        {
          "indexed": true,
          "internalType": "address",
          "name": "owner",
          "type": "address"
        },
        {
          "indexed": true,
          "internalType": "address",
          "name": "operator",
          "type": "address"
        },
        {
          "indexed": false,
          "internalType": "bool",
          "name": "approved",
          "type": "bool"
        }
      ],
      "name": "ApprovalForAll",
      "type": "event"
    },
    {
      "anonymous": false,
      "inputs": [
        {
          "indexed": false,
          "internalType": "uint256",
          "name": "tokenId",
          "type": "uint256"
        }
      ],
      "name": "Locked",
      "type": "event"
    },
    {
      "anonymous": false,
      "inputs": [
        {
          "indexed": true,
          "internalType": "address",
          "name": "previousOwner",
          "type": "address"
        },
        {
          "indexed": true,
          "internalType": "address",
          "name": "newOwner",
          "type": "address"
        }
      ],
      "name": "OwnershipTransferred",
      "type": "event"
    },
    {
      "anonymous": false,
      "inputs": [
        {
          "indexed": true,
          "internalType": "address",
          "name": "from",
          "type": "address"
        },
        {
          "indexed": true,
          "internalType": "address",
          "name": "to",
          "type": "address"
        },
        {
          "indexed": true,
          "internalType": "uint256",
          "name": "tokenId",
          "type": "uint256"
        }
      ],
      "name": "Transfer",
      "type": "event"
    },
    {
      "inputs": [
        {
          "internalType": "address",
          "name": "to",
          "type": "address"
        },
        {
          "internalType": "uint256",
          "name": "tokenId",
          "type": "uint256"
        }
      ],
      "name": "approve",
      "outputs": [],
      "stateMutability": "nonpayable",
      "type": "function"
    },
    {
      "inputs": [
        {
          "internalType": "uint256",
          "name": "tokenId",
          "type": "uint256"
        }
      ],
      "name": "getApproved",
      "outputs": [
        {
          "internalType": "address",
          "name": "",
          "type": "address"
        }
      ],
      "stateMutability": "view",
      "type": "function",
      "constant": true
    },
    {
      "inputs": [
        {
          "internalType": "address",
          "name": "owner",
          "type": "address"
        },
        {
          "internalType": "address",
          "name": "operator",
          "type": "address"
        }
      ],
      "name": "isApprovedForAll",
      "outputs": [
        {
          "internalType": "bool",
          "name": "",
          "type": "bool"
        }
      ],
      "stateMutability": "view",
      "type": "function",
      "constant": true
    },
    {
      "inputs": [],
      "name": "name",
      "outputs": [
        {
          "internalType": "string",
          "name": "",
          "type": "string"
        }
      ],
      "stateMutability": "view",
      "type": "function",
      "constant": true
    },
    {
      "inputs": [],
      "name": "owner",
      "outputs": [
        {
          "internalType": "address",
          "name": "",
          "type": "address"
        }
      ],
      "stateMutability": "view",
      "type": "function",
      "constant": true
    },
    {
      "inputs": [
        {
          "internalType": "uint256",
          "name": "tokenId",
          "type": "uint256"
        }
      ],
      "name": "ownerOf",
      "outputs": [
        {
          "internalType": "address",
          "name": "",
          "type": "address"
        }
      ],
      "stateMutability": "view",
      "type": "function",
      "constant": true
    },
    {
      "inputs": [],
      "name": "renounceOwnership",
      "outputs": [],
      "stateMutability": "nonpayable",
      "type": "function"
    },
    {
      "inputs": [
        {
          "internalType": "address",
          "name": "operator",
          "type": "address"
        },
        {
          "internalType": "bool",
          "name": "approved",
          "type": "bool"
        }
      ],
      "name": "setApprovalForAll",
      "outputs": [],
      "stateMutability": "nonpayable",
      "type": "function"
    },
    {
      "inputs": [
        {
          "internalType": "bytes4",
          "name": "interfaceId",
          "type": "bytes4"
        }
      ],
      "name": "supportsInterface",
      "outputs": [
        {
          "internalType": "bool",
          "name": "",
          "type": "bool"
        }
      ],
      "stateMutability": "view",
      "type": "function",
      "constant": true
    },
    {
      "inputs": [],
      "name": "symbol",
      "outputs": [
        {
          "internalType": "string",
          "name": "",
          "type": "string"
        }
      ],
      "stateMutability": "view",
      "type": "function",
      "constant": true
    },
    {
      "inputs": [
        {
          "internalType": "address",
          "name": "newOwner",
          "type": "address"
        }
      ],
      "name": "transferOwnership",
      "outputs": [],
      "stateMutability": "nonpayable",
      "type": "function"
    },
    {
      "inputs": [
        {
          "internalType": "uint256",
          "name": "tokenId",
          "type": "uint256"
        }
      ],
      "name": "locked",
      "outputs": [
        {
          "internalType": "bool",
          "name": "",
          "type": "bool"
        }
      ],
      "stateMutability": "view",
      "type": "function",
      "constant": true
    },
    {
      "inputs": [
        {
          "internalType": "address",
          "name": "to",
          "type": "address"
        },
        {
          "internalType": "string",
          "name": "uri",
          "type": "string"
        }
      ],
      "name": "safeMint",
      "outputs": [
        {
          "internalType": "uint256",
          "name": "",
          "type": "uint256"
        }
      ],
      "stateMutability": "nonpayable",
      "type": "function"
    },
    {
      "inputs": [
        {
          "internalType": "uint256",
          "name": "tokenId",
          "type": "uint256"
        }
      ],
      "name": "burn",
      "outputs": [],
      "stateMutability": "nonpayable",
      "type": "function"
    },
    {
      "inputs": [
        {
          "internalType": "uint256",
          "name": "tokenId",
          "type": "uint256"
        }
      ],
      "name": "revoke",
      "outputs": [],
      "stateMutability": "nonpayable",
      "type": "function"
    },
    {
      "inputs": [
        {
          "internalType": "address",
          "name": "from",
          "type": "address"
        },
        {
          "internalType": "address",
          "name": "to",
          "type": "address"
        },
        {
          "internalType": "uint256",
          "name": "tokenId",
          "type": "uint256"
        }
      ],
      "name": "safeTransferFrom",
      "outputs": [],
      "stateMutability": "nonpayable",
      "type": "function"
    },
    {
      "inputs": [
        {
          "internalType": "address",
          "name": "from",
          "type": "address"
        },
        {
          "internalType": "address",
          "name": "to",
          "type": "address"
        },
        {
          "internalType": "uint256",
          "name": "tokenId",
          "type": "uint256"
        },
        {
          "internalType": "bytes",
          "name": "data",
          "type": "bytes"
        }
      ],
      "name": "safeTransferFrom",
      "outputs": [],
      "stateMutability": "nonpayable",
      "type": "function"
    },
    {
      "inputs": [
        {
          "internalType": "address",
          "name": "from",
          "type": "address"
        },
        {
          "internalType": "address",
          "name": "to",
          "type": "address"
        },
        {
          "internalType": "uint256",
          "name": "tokenId",
          "type": "uint256"
        }
      ],
      "name": "transferFrom",
      "outputs": [],
      "stateMutability": "nonpayable",
      "type": "function"
    },
    {
      "inputs": [
        {
          "internalType": "uint256",
          "name": "tokenId",
          "type": "uint256"
        }
      ],
      "name": "tokenURI",
      "outputs": [
        {
          "internalType": "string",
          "name": "",
          "type": "string"
        }
      ],
      "stateMutability": "view",
      "type": "function",
      "constant": true
    },
    {
      "inputs": [
        {
          "internalType": "address",
          "name": "owner",
          "type": "address"
        },
        {
          "internalType": "uint256",
          "name": "index",
          "type": "uint256"
        }
      ],
      "name": "tokenOfOwnerByIndex",
      "outputs": [
        {
          "internalType": "uint256",
          "name": "",
          "type": "uint256"
        }
      ],
      "stateMutability": "view",
      "type": "function",
      "constant": true
    },
    {
      "inputs": [
        {
          "internalType": "address",
          "name": "owner",
          "type": "address"
        }
      ],
      "name": "balanceOf",
      "outputs": [
        {
          "internalType": "uint256",
          "name": "",
          "type": "uint256"
        }
      ],
      "stateMutability": "view",
      "type": "function",
      "constant": true
    },
    {
      "inputs": [
        {
          "internalType": "address",
          "name": "owner",
          "type": "address"
        }
      ],
      "name": "getTotalTokenIdFromOwner",
      "outputs": [
        {
          "internalType": "uint256[]",
          "name": "",
          "type": "uint256[]"
        }
      ],
      "stateMutability": "view",
      "type": "function",
      "constant": true
    }
  ],
  "bytecode": "0x60806040523480156200001157600080fd5b506040518060400160405280600e81526020017f5765623320436c756220546f75720000000000000000000000000000000000008152506040518060400160405280600481526020017f573343540000000000000000000000000000000000000000000000000000000081525081600090816200008f919062000412565b508060019081620000a1919062000412565b505050620000c4620000b8620000ca60201b60201c565b620000d260201b60201c565b620004f9565b600033905090565b6000600760009054906101000a900473ffffffffffffffffffffffffffffffffffffffff16905081600760006101000a81548173ffffffffffffffffffffffffffffffffffffffff021916908373ffffffffffffffffffffffffffffffffffffffff1602179055508173ffffffffffffffffffffffffffffffffffffffff168173ffffffffffffffffffffffffffffffffffffffff167f8be0079c531659141344cd1fd0a4f28419497f9722a3daafe3b4186f6b6457e060405160405180910390a35050565b600081519050919050565b7f4e487b7100000000000000000000000000000000000000000000000000000000600052604160045260246000fd5b7f4e487b7100000000000000000000000000000000000000000000000000000000600052602260045260246000fd5b600060028204905060018216806200021a57607f821691505b60208210810362000230576200022f620001d2565b5b50919050565b60008190508160005260206000209050919050565b60006020601f8301049050919050565b600082821b905092915050565b6000600883026200029a7fffffffffffffffffffffffffffffffffffffffffffffffffffffffffffffffff826200025b565b620002a686836200025b565b95508019841693508086168417925050509392505050565b6000819050919050565b6000819050919050565b6000620002f3620002ed620002e784620002be565b620002c8565b620002be565b9050919050565b6000819050919050565b6200030f83620002d2565b620003276200031e82620002fa565b84845462000268565b825550505050565b600090565b6200033e6200032f565b6200034b81848462000304565b505050565b5b8181101562000373576200036760008262000334565b60018101905062000351565b5050565b601f821115620003c2576200038c8162000236565b62000397846200024b565b81016020851015620003a7578190505b620003bf620003b6856200024b565b83018262000350565b50505b505050565b600082821c905092915050565b6000620003e760001984600802620003c7565b1980831691505092915050565b6000620004028383620003d4565b9150826002028217905092915050565b6200041d8262000198565b67ffffffffffffffff811115620004395762000438620001a3565b5b62000445825462000201565b6200045282828562000377565b600060209050601f8311600181146200048a576000841562000475578287015190505b620004818582620003f4565b865550620004f1565b601f1984166200049a8662000236565b60005b82811015620004c4578489015182556001820191506020850194506020810190506200049d565b86831015620004e45784890151620004e0601f891682620003d4565b8355505b6001600288020188555050505b505050505050565b61320680620005096000396000f3fe608060405234801561001057600080fd5b50600436106101425760003560e01c806370a08231116100b8578063b45a3c0e1161007c578063b45a3c0e14610373578063b88d4fde146103a3578063c87b56dd146103bf578063d204c45e146103ef578063e985e9c51461041f578063f2fde38b1461044f57610142565b806370a08231146102e1578063715018a6146103115780638da5cb5b1461031b57806395d89b4114610339578063a22cb4651461035757610142565b806323b872dd1161010a57806323b872dd146101fd5780632f745c591461021957806342842e0e1461024957806342966c6814610265578063481bb3ae146102815780636352211e146102b157610142565b806301ffc9a71461014757806306fdde0314610177578063081812fc14610195578063095ea7b3146101c557806320c5429b146101e1575b600080fd5b610161600480360381019061015c9190611f29565b61046b565b60405161016e9190611f71565b60405180910390f35b61017f61054d565b60405161018c919061201c565b60405180910390f35b6101af60048036038101906101aa9190612074565b6105df565b6040516101bc91906120e2565b60405180910390f35b6101df60048036038101906101da9190612129565b610625565b005b6101fb60048036038101906101f69190612074565b61073c565b005b61021760048036038101906102129190612169565b610750565b005b610233600480360381019061022e9190612129565b6107c9565b60405161024091906121cb565b60405180910390f35b610263600480360381019061025e9190612169565b6107dd565b005b61027f600480360381019061027a9190612074565b610856565b005b61029b600480360381019061029691906121e6565b6108d8565b6040516102a891906122d1565b60405180910390f35b6102cb60048036038101906102c69190612074565b610a71565b6040516102d891906120e2565b60405180910390f35b6102fb60048036038101906102f691906121e6565b610af7565b60405161030891906121cb565b60405180910390f35b610319610bae565b005b610323610bc2565b60405161033091906120e2565b60405180910390f35b610341610bec565b60405161034e919061201c565b60405180910390f35b610371600480360381019061036c919061231f565b610c7e565b005b61038d60048036038101906103889190612074565b610c94565b60405161039a9190611f71565b60405180910390f35b6103bd60048036038101906103b89190612494565b610cbe565b005b6103d960048036038101906103d49190612074565b610d38565b6040516103e6919061201c565b60405180910390f35b610409600480360381019061040491906125b8565b610d4a565b60405161041691906121cb565b60405180910390f35b61043960048036038101906104349190612614565b610e49565b6040516104469190611f71565b60405180910390f35b610469600480360381019061046491906121e6565b610edd565b005b60007f80ac58cd000000000000000000000000000000000000000000000000000000007bffffffffffffffffffffffffffffffffffffffffffffffffffffffff1916827bffffffffffffffffffffffffffffffffffffffffffffffffffffffff1916148061053657507f5b5e139f000000000000000000000000000000000000000000000000000000007bffffffffffffffffffffffffffffffffffffffffffffffffffffffff1916827bffffffffffffffffffffffffffffffffffffffffffffffffffffffff1916145b80610546575061054582610f60565b5b9050919050565b60606000805461055c90612683565b80601f016020809104026020016040519081016040528092919081815260200182805461058890612683565b80156105d55780601f106105aa576101008083540402835291602001916105d5565b820191906000526020600020905b8154815290600101906020018083116105b857829003601f168201915b5050505050905090565b60006105ea82610fca565b6004600083815260200190815260200160002060009054906101000a900473ffffffffffffffffffffffffffffffffffffffff169050919050565b600061063082610a71565b90508073ffffffffffffffffffffffffffffffffffffffff168373ffffffffffffffffffffffffffffffffffffffff16036106a0576040517f08c379a000000000000000000000000000000000000000000000000000000000815260040161069790612726565b60405180910390fd5b8073ffffffffffffffffffffffffffffffffffffffff166106bf611015565b73ffffffffffffffffffffffffffffffffffffffff1614806106ee57506106ed816106e8611015565b610e49565b5b61072d576040517f08c379a0000000000000000000000000000000000000000000000000000000008152600401610724906127b8565b60405180910390fd5b610737838361101d565b505050565b6107446110d6565b61074d81611154565b50565b80600015156009600083815260200190815260200160002060009054906101000a900460ff161515146107b8576040517f08c379a00000000000000000000000000000000000000000000000000000000081526004016107af90612824565b60405180910390fd5b6107c3848484611160565b50505050565b60006107d583836107c9565b905092915050565b80600015156009600083815260200190815260200160002060009054906101000a900460ff16151514610845576040517f08c379a000000000000000000000000000000000000000000000000000000000815260040161083c90612824565b60405180910390fd5b610850848484611160565b50505050565b3373ffffffffffffffffffffffffffffffffffffffff1661087682610a71565b73ffffffffffffffffffffffffffffffffffffffff16146108cc576040517f08c379a00000000000000000000000000000000000000000000000000000000081526004016108c3906128b6565b60405180910390fd5b6108d581611154565b50565b606060006108e66008611180565b905060008167ffffffffffffffff81111561090457610903612369565b5b6040519080825280602002602001820160405280156109325781602001602082028036833780820191505090505b5090506000805b838110156109be5761094a81610a71565b73ffffffffffffffffffffffffffffffffffffffff168673ffffffffffffffffffffffffffffffffffffffff16036109ab57808383815181106109905761098f6128d6565b5b60200260200101818152505081806109a790612934565b9250505b80806109b690612934565b915050610939565b5060008167ffffffffffffffff8111156109db576109da612369565b5b604051908082528060200260200182016040528015610a095781602001602082028036833780820191505090505b50905060005b82811015610a6457838181518110610a2a57610a296128d6565b5b6020026020010151828281518110610a4557610a446128d6565b5b6020026020010181815250508080610a5c90612934565b915050610a0f565b5080945050505050919050565b600080610a7d8361118e565b9050600073ffffffffffffffffffffffffffffffffffffffff168173ffffffffffffffffffffffffffffffffffffffff1603610aee576040517f08c379a0000000000000000000000000000000000000000000000000000000008152600401610ae5906129c8565b60405180910390fd5b80915050919050565b60008073ffffffffffffffffffffffffffffffffffffffff168273ffffffffffffffffffffffffffffffffffffffff1603610b67576040517f08c379a0000000000000000000000000000000000000000000000000000000008152600401610b5e90612a5a565b60405180910390fd5b600a60008373ffffffffffffffffffffffffffffffffffffffff1673ffffffffffffffffffffffffffffffffffffffff168152602001908152602001600020549050919050565b610bb66110d6565b610bc060006111cb565b565b6000600760009054906101000a900473ffffffffffffffffffffffffffffffffffffffff16905090565b606060018054610bfb90612683565b80601f0160208091040260200160405190810160405280929190818152602001828054610c2790612683565b8015610c745780601f10610c4957610100808354040283529160200191610c74565b820191906000526020600020905b815481529060010190602001808311610c5757829003601f168201915b5050505050905090565b610c90610c89611015565b8383611291565b5050565b60006009600083815260200190815260200160002060009054906101000a900460ff169050919050565b81600015156009600083815260200190815260200160002060009054906101000a900460ff16151514610d26576040517f08c379a0000000000000000000000000000000000000000000000000000000008152600401610d1d90612824565b60405180910390fd5b610d31858585611160565b5050505050565b6060610d43826113fd565b9050919050565b6000610d546110d6565b6000610d606008611180565b9050610d6c600861150f565b60016009600083815260200190815260200160002060006101000a81548160ff0219169083151502179055507f032bc66be43dbccb7487781d168eb7bda224628a3b2c3388bdf69b532a3a161181604051610dc791906121cb565b60405180910390a1610dd98482611525565b610de38184611543565b808473ffffffffffffffffffffffffffffffffffffffff16600073ffffffffffffffffffffffffffffffffffffffff167fddf252ad1be2c89b69c2b068fc378daa952ba7f163c4a11628f55a4df523b3ef60405160405180910390a48091505092915050565b6000600560008473ffffffffffffffffffffffffffffffffffffffff1673ffffffffffffffffffffffffffffffffffffffff16815260200190815260200160002060008373ffffffffffffffffffffffffffffffffffffffff1673ffffffffffffffffffffffffffffffffffffffff16815260200190815260200160002060009054906101000a900460ff16905092915050565b610ee56110d6565b600073ffffffffffffffffffffffffffffffffffffffff168173ffffffffffffffffffffffffffffffffffffffff1603610f54576040517f08c379a0000000000000000000000000000000000000000000000000000000008152600401610f4b90612aec565b60405180910390fd5b610f5d816111cb565b50565b60007f01ffc9a7000000000000000000000000000000000000000000000000000000007bffffffffffffffffffffffffffffffffffffffffffffffffffffffff1916827bffffffffffffffffffffffffffffffffffffffffffffffffffffffff1916149050919050565b610fd3816115b0565b611012576040517f08c379a0000000000000000000000000000000000000000000000000000000008152600401611009906129c8565b60405180910390fd5b50565b600033905090565b816004600083815260200190815260200160002060006101000a81548173ffffffffffffffffffffffffffffffffffffffff021916908373ffffffffffffffffffffffffffffffffffffffff160217905550808273ffffffffffffffffffffffffffffffffffffffff1661109083610a71565b73ffffffffffffffffffffffffffffffffffffffff167f8c5be1e5ebec7d5bd14f71427d1e84f3dd0314c0f7b2291e5b200ac8c7c3b92560405160405180910390a45050565b6110de611015565b73ffffffffffffffffffffffffffffffffffffffff166110fc610bc2565b73ffffffffffffffffffffffffffffffffffffffff1614611152576040517f08c379a000000000000000000000000000000000000000000000000000000000815260040161114990612b58565b60405180910390fd5b565b61115d816115f1565b50565b61117b83838360405180602001604052806000815250610cbe565b505050565b600081600001549050919050565b60006002600083815260200190815260200160002060009054906101000a900473ffffffffffffffffffffffffffffffffffffffff169050919050565b6000600760009054906101000a900473ffffffffffffffffffffffffffffffffffffffff16905081600760006101000a81548173ffffffffffffffffffffffffffffffffffffffff021916908373ffffffffffffffffffffffffffffffffffffffff1602179055508173ffffffffffffffffffffffffffffffffffffffff168173ffffffffffffffffffffffffffffffffffffffff167f8be0079c531659141344cd1fd0a4f28419497f9722a3daafe3b4186f6b6457e060405160405180910390a35050565b8173ffffffffffffffffffffffffffffffffffffffff168373ffffffffffffffffffffffffffffffffffffffff16036112ff576040517f08c379a00000000000000000000000000000000000000000000000000000000081526004016112f690612bc4565b60405180910390fd5b80600560008573ffffffffffffffffffffffffffffffffffffffff1673ffffffffffffffffffffffffffffffffffffffff16815260200190815260200160002060008473ffffffffffffffffffffffffffffffffffffffff1673ffffffffffffffffffffffffffffffffffffffff16815260200190815260200160002060006101000a81548160ff0219169083151502179055508173ffffffffffffffffffffffffffffffffffffffff168373ffffffffffffffffffffffffffffffffffffffff167f17307eab39ab6107e8899845ad3d59bd9653f200f220920489ca2b5937696c31836040516113f09190611f71565b60405180910390a3505050565b606061140882610fca565b600060066000848152602001908152602001600020805461142890612683565b80601f016020809104026020016040519081016040528092919081815260200182805461145490612683565b80156114a15780601f10611476576101008083540402835291602001916114a1565b820191906000526020600020905b81548152906001019060200180831161148457829003601f168201915b5050505050905060006114b2611644565b905060008151036114c757819250505061150a565b6000825111156114fc5780826040516020016114e4929190612c20565b6040516020818303038152906040529250505061150a565b6115058461165b565b925050505b919050565b6001816000016000828254019250508190555050565b61153f8282604051806020016040528060008152506116c3565b5050565b61154c826115b0565b61158b576040517f08c379a000000000000000000000000000000000000000000000000000000000815260040161158290612cb6565b60405180910390fd5b806006600084815260200190815260200160002090816115ab9190612e82565b505050565b60008073ffffffffffffffffffffffffffffffffffffffff166115d28361118e565b73ffffffffffffffffffffffffffffffffffffffff1614159050919050565b6115fa8161171e565b600060066000838152602001908152602001600020805461161a90612683565b905014611641576006600082815260200190815260200160002060006116409190611e60565b5b50565b606060405180602001604052806000815250905090565b606061166682610fca565b6000611670611644565b9050600081511161169057604051806020016040528060008152506116bb565b8061169a8461186c565b6040516020016116ab929190612c20565b6040516020818303038152906040525b915050919050565b6116cd838361193a565b6116da6000848484611b57565b611719576040517f08c379a000000000000000000000000000000000000000000000000000000000815260040161171090612fc6565b60405180910390fd5b505050565b600061172982610a71565b9050611739816000846001611cde565b61174282610a71565b90506004600083815260200190815260200160002060006101000a81549073ffffffffffffffffffffffffffffffffffffffff02191690556001600360008373ffffffffffffffffffffffffffffffffffffffff1673ffffffffffffffffffffffffffffffffffffffff168152602001908152602001600020600082825403925050819055506002600083815260200190815260200160002060006101000a81549073ffffffffffffffffffffffffffffffffffffffff021916905581600073ffffffffffffffffffffffffffffffffffffffff168273ffffffffffffffffffffffffffffffffffffffff167fddf252ad1be2c89b69c2b068fc378daa952ba7f163c4a11628f55a4df523b3ef60405160405180910390a4611868816000846001611ce4565b5050565b60606000600161187b84611cea565b01905060008167ffffffffffffffff81111561189a57611899612369565b5b6040519080825280601f01601f1916602001820160405280156118cc5781602001600182028036833780820191505090505b509050600082602001820190505b60011561192f578080600190039150507f3031323334353637383961626364656600000000000000000000000000000000600a86061a8153600a858161192357611922612fe6565b5b049450600085036118da575b819350505050919050565b600073ffffffffffffffffffffffffffffffffffffffff168273ffffffffffffffffffffffffffffffffffffffff16036119a9576040517f08c379a00000000000000000000000000000000000000000000000000000000081526004016119a090613061565b60405180910390fd5b6119b2816115b0565b156119f2576040517f08c379a00000000000000000000000000000000000000000000000000000000081526004016119e9906130cd565b60405180910390fd5b611a00600083836001611cde565b611a09816115b0565b15611a49576040517f08c379a0000000000000000000000000000000000000000000000000000000008152600401611a40906130cd565b60405180910390fd5b6001600360008473ffffffffffffffffffffffffffffffffffffffff1673ffffffffffffffffffffffffffffffffffffffff16815260200190815260200160002060008282540192505081905550816002600083815260200190815260200160002060006101000a81548173ffffffffffffffffffffffffffffffffffffffff021916908373ffffffffffffffffffffffffffffffffffffffff160217905550808273ffffffffffffffffffffffffffffffffffffffff16600073ffffffffffffffffffffffffffffffffffffffff167fddf252ad1be2c89b69c2b068fc378daa952ba7f163c4a11628f55a4df523b3ef60405160405180910390a4611b53600083836001611ce4565b5050565b6000611b788473ffffffffffffffffffffffffffffffffffffffff16611e3d565b15611cd1578373ffffffffffffffffffffffffffffffffffffffff1663150b7a02611ba1611015565b8786866040518563ffffffff1660e01b8152600401611bc39493929190613142565b6020604051808303816000875af1925050508015611bff57506040513d601f19601f82011682018060405250810190611bfc91906131a3565b60015b611c81573d8060008114611c2f576040519150601f19603f3d011682016040523d82523d6000602084013e611c34565b606091505b506000815103611c79576040517f08c379a0000000000000000000000000000000000000000000000000000000008152600401611c7090612fc6565b60405180910390fd5b805181602001fd5b63150b7a0260e01b7bffffffffffffffffffffffffffffffffffffffffffffffffffffffff1916817bffffffffffffffffffffffffffffffffffffffffffffffffffffffff191614915050611cd6565b600190505b949350505050565b50505050565b50505050565b600080600090507a184f03e93ff9f4daa797ed6e38ed64bf6a1f0100000000000000008310611d48577a184f03e93ff9f4daa797ed6e38ed64bf6a1f0100000000000000008381611d3e57611d3d612fe6565b5b0492506040810190505b6d04ee2d6d415b85acef81000000008310611d85576d04ee2d6d415b85acef81000000008381611d7b57611d7a612fe6565b5b0492506020810190505b662386f26fc100008310611db457662386f26fc100008381611daa57611da9612fe6565b5b0492506010810190505b6305f5e1008310611ddd576305f5e1008381611dd357611dd2612fe6565b5b0492506008810190505b6127108310611e02576127108381611df857611df7612fe6565b5b0492506004810190505b60648310611e255760648381611e1b57611e1a612fe6565b5b0492506002810190505b600a8310611e34576001810190505b80915050919050565b6000808273ffffffffffffffffffffffffffffffffffffffff163b119050919050565b508054611e6c90612683565b6000825580601f10611e7e5750611e9d565b601f016020900490600052602060002090810190611e9c9190611ea0565b5b50565b5b80821115611eb9576000816000905550600101611ea1565b5090565b6000604051905090565b600080fd5b600080fd5b60007fffffffff0000000000000000000000000000000000000000000000000000000082169050919050565b611f0681611ed1565b8114611f1157600080fd5b50565b600081359050611f2381611efd565b92915050565b600060208284031215611f3f57611f3e611ec7565b5b6000611f4d84828501611f14565b91505092915050565b60008115159050919050565b611f6b81611f56565b82525050565b6000602082019050611f866000830184611f62565b92915050565b600081519050919050565b600082825260208201905092915050565b60005b83811015611fc6578082015181840152602081019050611fab565b60008484015250505050565b6000601f19601f8301169050919050565b6000611fee82611f8c565b611ff88185611f97565b9350612008818560208601611fa8565b61201181611fd2565b840191505092915050565b600060208201905081810360008301526120368184611fe3565b905092915050565b6000819050919050565b6120518161203e565b811461205c57600080fd5b50565b60008135905061206e81612048565b92915050565b60006020828403121561208a57612089611ec7565b5b60006120988482850161205f565b91505092915050565b600073ffffffffffffffffffffffffffffffffffffffff82169050919050565b60006120cc826120a1565b9050919050565b6120dc816120c1565b82525050565b60006020820190506120f760008301846120d3565b92915050565b612106816120c1565b811461211157600080fd5b50565b600081359050612123816120fd565b92915050565b600080604083850312156121405761213f611ec7565b5b600061214e85828601612114565b925050602061215f8582860161205f565b9150509250929050565b60008060006060848603121561218257612181611ec7565b5b600061219086828701612114565b93505060206121a186828701612114565b92505060406121b28682870161205f565b9150509250925092565b6121c58161203e565b82525050565b60006020820190506121e060008301846121bc565b92915050565b6000602082840312156121fc576121fb611ec7565b5b600061220a84828501612114565b91505092915050565b600081519050919050565b600082825260208201905092915050565b6000819050602082019050919050565b6122488161203e565b82525050565b600061225a838361223f565b60208301905092915050565b6000602082019050919050565b600061227e82612213565b612288818561221e565b93506122938361222f565b8060005b838110156122c45781516122ab888261224e565b97506122b683612266565b925050600181019050612297565b5085935050505092915050565b600060208201905081810360008301526122eb8184612273565b905092915050565b6122fc81611f56565b811461230757600080fd5b50565b600081359050612319816122f3565b92915050565b6000806040838503121561233657612335611ec7565b5b600061234485828601612114565b92505060206123558582860161230a565b9150509250929050565b600080fd5b600080fd5b7f4e487b7100000000000000000000000000000000000000000000000000000000600052604160045260246000fd5b6123a182611fd2565b810181811067ffffffffffffffff821117156123c0576123bf612369565b5b80604052505050565b60006123d3611ebd565b90506123df8282612398565b919050565b600067ffffffffffffffff8211156123ff576123fe612369565b5b61240882611fd2565b9050602081019050919050565b82818337600083830152505050565b6000612437612432846123e4565b6123c9565b90508281526020810184848401111561245357612452612364565b5b61245e848285612415565b509392505050565b600082601f83011261247b5761247a61235f565b5b813561248b848260208601612424565b91505092915050565b600080600080608085870312156124ae576124ad611ec7565b5b60006124bc87828801612114565b94505060206124cd87828801612114565b93505060406124de8782880161205f565b925050606085013567ffffffffffffffff8111156124ff576124fe611ecc565b5b61250b87828801612466565b91505092959194509250565b600067ffffffffffffffff82111561253257612531612369565b5b61253b82611fd2565b9050602081019050919050565b600061255b61255684612517565b6123c9565b90508281526020810184848401111561257757612576612364565b5b612582848285612415565b509392505050565b600082601f83011261259f5761259e61235f565b5b81356125af848260208601612548565b91505092915050565b600080604083850312156125cf576125ce611ec7565b5b60006125dd85828601612114565b925050602083013567ffffffffffffffff8111156125fe576125fd611ecc565b5b61260a8582860161258a565b9150509250929050565b6000806040838503121561262b5761262a611ec7565b5b600061263985828601612114565b925050602061264a85828601612114565b9150509250929050565b7f4e487b7100000000000000000000000000000000000000000000000000000000600052602260045260246000fd5b6000600282049050600182168061269b57607f821691505b6020821081036126ae576126ad612654565b5b50919050565b7f4552433732313a20617070726f76616c20746f2063757272656e74206f776e6560008201527f7200000000000000000000000000000000000000000000000000000000000000602082015250565b6000612710602183611f97565b915061271b826126b4565b604082019050919050565b6000602082019050818103600083015261273f81612703565b9050919050565b7f4552433732313a20617070726f76652063616c6c6572206973206e6f7420746f60008201527f6b656e206f776e6572206f7220617070726f76656420666f7220616c6c000000602082015250565b60006127a2603d83611f97565b91506127ad82612746565b604082019050919050565b600060208201905081810360008301526127d181612795565b9050919050565b7f4e6f7420616c6c6f77656420746f207472616e7366657220746f6b656e000000600082015250565b600061280e601d83611f97565b9150612819826127d8565b602082019050919050565b6000602082019050818103600083015261283d81612801565b9050919050565b7f4f6e6c79206f776e6572206f662074686520746f6b656e2063616e206275726e60008201527f2069740000000000000000000000000000000000000000000000000000000000602082015250565b60006128a0602383611f97565b91506128ab82612844565b604082019050919050565b600060208201905081810360008301526128cf81612893565b9050919050565b7f4e487b7100000000000000000000000000000000000000000000000000000000600052603260045260246000fd5b7f4e487b7100000000000000000000000000000000000000000000000000000000600052601160045260246000fd5b600061293f8261203e565b91507fffffffffffffffffffffffffffffffffffffffffffffffffffffffffffffffff820361297157612970612905565b5b600182019050919050565b7f4552433732313a20696e76616c696420746f6b656e2049440000000000000000600082015250565b60006129b2601883611f97565b91506129bd8261297c565b602082019050919050565b600060208201905081810360008301526129e1816129a5565b9050919050565b7f4552433732313a2061646472657373207a65726f206973206e6f74206120766160008201527f6c6964206f776e65720000000000000000000000000000000000000000000000602082015250565b6000612a44602983611f97565b9150612a4f826129e8565b604082019050919050565b60006020820190508181036000830152612a7381612a37565b9050919050565b7f4f776e61626c653a206e6577206f776e657220697320746865207a65726f206160008201527f6464726573730000000000000000000000000000000000000000000000000000602082015250565b6000612ad6602683611f97565b9150612ae182612a7a565b604082019050919050565b60006020820190508181036000830152612b0581612ac9565b9050919050565b7f4f776e61626c653a2063616c6c6572206973206e6f7420746865206f776e6572600082015250565b6000612b42602083611f97565b9150612b4d82612b0c565b602082019050919050565b60006020820190508181036000830152612b7181612b35565b9050919050565b7f4552433732313a20617070726f766520746f2063616c6c657200000000000000600082015250565b6000612bae601983611f97565b9150612bb982612b78565b602082019050919050565b60006020820190508181036000830152612bdd81612ba1565b9050919050565b600081905092915050565b6000612bfa82611f8c565b612c048185612be4565b9350612c14818560208601611fa8565b80840191505092915050565b6000612c2c8285612bef565b9150612c388284612bef565b91508190509392505050565b7f45524337323155524953746f726167653a2055524920736574206f66206e6f6e60008201527f6578697374656e7420746f6b656e000000000000000000000000000000000000602082015250565b6000612ca0602e83611f97565b9150612cab82612c44565b604082019050919050565b60006020820190508181036000830152612ccf81612c93565b9050919050565b60008190508160005260206000209050919050565b60006020601f8301049050919050565b600082821b905092915050565b600060088302612d387fffffffffffffffffffffffffffffffffffffffffffffffffffffffffffffffff82612cfb565b612d428683612cfb565b95508019841693508086168417925050509392505050565b6000819050919050565b6000612d7f612d7a612d758461203e565b612d5a565b61203e565b9050919050565b6000819050919050565b612d9983612d64565b612dad612da582612d86565b848454612d08565b825550505050565b600090565b612dc2612db5565b612dcd818484612d90565b505050565b5b81811015612df157612de6600082612dba565b600181019050612dd3565b5050565b601f821115612e3657612e0781612cd6565b612e1084612ceb565b81016020851015612e1f578190505b612e33612e2b85612ceb565b830182612dd2565b50505b505050565b600082821c905092915050565b6000612e5960001984600802612e3b565b1980831691505092915050565b6000612e728383612e48565b9150826002028217905092915050565b612e8b82611f8c565b67ffffffffffffffff811115612ea457612ea3612369565b5b612eae8254612683565b612eb9828285612df5565b600060209050601f831160018114612eec5760008415612eda578287015190505b612ee48582612e66565b865550612f4c565b601f198416612efa86612cd6565b60005b82811015612f2257848901518255600182019150602085019450602081019050612efd565b86831015612f3f5784890151612f3b601f891682612e48565b8355505b6001600288020188555050505b505050505050565b7f4552433732313a207472616e7366657220746f206e6f6e20455243373231526560008201527f63656976657220696d706c656d656e7465720000000000000000000000000000602082015250565b6000612fb0603283611f97565b9150612fbb82612f54565b604082019050919050565b60006020820190508181036000830152612fdf81612fa3565b9050919050565b7f4e487b7100000000000000000000000000000000000000000000000000000000600052601260045260246000fd5b7f4552433732313a206d696e7420746f20746865207a65726f2061646472657373600082015250565b600061304b602083611f97565b915061305682613015565b602082019050919050565b6000602082019050818103600083015261307a8161303e565b9050919050565b7f4552433732313a20746f6b656e20616c7265616479206d696e74656400000000600082015250565b60006130b7601c83611f97565b91506130c282613081565b602082019050919050565b600060208201905081810360008301526130e6816130aa565b9050919050565b600081519050919050565b600082825260208201905092915050565b6000613114826130ed565b61311e81856130f8565b935061312e818560208601611fa8565b61313781611fd2565b840191505092915050565b600060808201905061315760008301876120d3565b61316460208301866120d3565b61317160408301856121bc565b81810360608301526131838184613109565b905095945050505050565b60008151905061319d81611efd565b92915050565b6000602082840312156131b9576131b8611ec7565b5b60006131c78482850161318e565b9150509291505056fea26469706673582212204b2cf0146ab1f24780fca752057a8413423724e6f5bca93332fbfd466e42aa5564736f6c63430008130033",
  "immutableReferences": {},
  "source": "// ipfs://bafkreic6ov4qo4ucd4g4uuyve4h72nc4y2lg7ugtq3n3vxnfp3lojvtmdu\n\n// SPDX-License-Identifier: MIT\npragma solidity ^0.8.4;\nimport \"../node_modules/@openzeppelin/contracts/token/ERC721/ERC721.sol\";\nimport \"../node_modules/@openzeppelin/contracts/token/ERC721/extensions/ERC721URIStorage.sol\";\nimport \"../node_modules/@openzeppelin/contracts/token/ERC721/extensions/IERC721Metadata.sol\";\nimport \"../node_modules/@openzeppelin/contracts/token/ERC721/IERC721.sol\";\nimport \"../node_modules/@openzeppelin/contracts/access/Ownable.sol\";\nimport \"../node_modules/@openzeppelin/contracts/utils/Counters.sol\";\n\ncontract SBT is ERC721, ERC721URIStorage, Ownable {\n    using Counters for Counters.Counter;\n\n    Counters.Counter private _tokenIdCounter;\n\n    constructor() ERC721(\"Web3 Club Tour\", \"W3CT\") {}\n\n    \n    mapping(uint256 => bool) _locked;\n\n    \n    mapping(address => uint256) private _balances;\n\n\n    event Locked(uint256 tokenId);\n\n\n    function locked(uint256 tokenId) external view returns (bool) {\n        //require(ownerOf(tokenId) != address(0));\n        return _locked[tokenId];\n    }\n    \n    /**function safeMint(address to, string memory uri) public onlyOwner {\n        uint256 tokenId = _tokenIdCounter.current();\n        _tokenIdCounter.increment();\n\n        _locked[tokenId] = true;\n        emit Locked(tokenId);\n        \n        _safeMint(to, tokenId);\n        _setTokenURI(tokenId, uri);\n    }*/\n\nfunction safeMint(address to, string memory uri) public onlyOwner returns (uint256) {\n    uint256 tokenId = _tokenIdCounter.current();\n    _tokenIdCounter.increment();\n\n    _locked[tokenId] = true;\n    emit Locked(tokenId);\n\n    _safeMint(to, tokenId);\n    _setTokenURI(tokenId, uri);\n    emit Transfer(address(0), to, tokenId); // Transfer  \n\n    return tokenId;\n}\n\n\n    function burn(uint256 tokenId) external {\n        require(ownerOf(tokenId) == msg.sender, \"Only owner of the token can burn it\");\n        _burn(tokenId);\n    }\n\n    function revoke(uint256 tokenId) external onlyOwner {\n        _burn(tokenId);\n    }\n\n    modifier IsTransferAllowed(uint256 tokenId) {\n        require(_locked[tokenId] == false, \"Not allowed to transfer token\");\n        _;\n    }\n\n    function safeTransferFrom(address from, address to, uint256 tokenId) public virtual override IsTransferAllowed(tokenId) {\n        super.safeTransferFrom(from, to, tokenId);\n    }\n\n    function safeTransferFrom(address from, address to, uint256 tokenId, bytes memory data) public virtual override IsTransferAllowed(tokenId) {\n        super.safeTransferFrom(from, to, tokenId);\n    }\n\n    function transferFrom(address from, address to, uint256 tokenId) public virtual override IsTransferAllowed(tokenId) {\n        super.safeTransferFrom(from, to, tokenId);\n    }\n\n    function _burn(uint256 tokenId) internal override(ERC721, ERC721URIStorage) {\n        super._burn(tokenId);\n    }\n\n    function tokenURI(uint256 tokenId)\n        public\n        view\n        override(ERC721, ERC721URIStorage)\n        returns (string memory)\n    {\n        return super.tokenURI(tokenId);\n    }\n\n    function tokenOfOwnerByIndex(address owner, uint256 index) public view returns (uint256) {\n        return tokenOfOwnerByIndex(owner, index);\n    }\n\n    function balanceOf(address owner) public view virtual override returns (uint256) {\n        require(owner != address(0), \"ERC721: address zero is not a valid owner\");\n        return _balances[owner];\n    }\n\n    function getTotalTokenIdFromOwner(address owner) public view returns (uint256[] memory) {\n        uint256 totalToken = _tokenIdCounter.current();\n        uint256[] memory tokenIds = new uint256[](totalToken);\n        uint256 j = 0;\n\n        for (uint256 i = 0; i < totalToken; i++) {\n            if (owner == ownerOf(i)) {\n                tokenIds[j] = i;\n                j++;\n            }\n        }\n\n        // Create a new dynamic array with the correct length\n        uint256[] memory finalTokenIds = new uint256[](j);\n        \n        // Copy the non-zero elements from tokenIds to finalTokenIds\n        for (uint256 k = 0; k < j; k++) {\n            finalTokenIds[k] = tokenIds[k];\n        }\n\n        return finalTokenIds;\n    }\n}\n",
  "sourcePath": "/home/ubuntu/truffle-project/contracts/SBT.sol",
  "compiler": {
    "name": "solc",
    "version": "0.8.19+commit.7dd6d404.Emscripten.clang"
  },
  "schemaVersion": "3.4.13",
  "updatedAt": "2023-06-08T13:37:57.938Z",
  "networkType": "ethereum",
  "devdoc": {
    "events": {
      "Approval(address,address,uint256)": {
        "details": "Emitted when `owner` enables `approved` to manage the `tokenId` token."
      },
      "ApprovalForAll(address,address,bool)": {
        "details": "Emitted when `owner` enables or disables (`approved`) `operator` to manage all of its assets."
      },
      "Transfer(address,address,uint256)": {
        "details": "Emitted when `tokenId` token is transferred from `from` to `to`."
      }
    },
    "kind": "dev",
    "methods": {
      "approve(address,uint256)": {
        "details": "See {IERC721-approve}."
      },
      "balanceOf(address)": {
        "details": "See {IERC721-balanceOf}."
      },
      "getApproved(uint256)": {
        "details": "See {IERC721-getApproved}."
      },
      "isApprovedForAll(address,address)": {
        "details": "See {IERC721-isApprovedForAll}."
      },
      "name()": {
        "details": "See {IERC721Metadata-name}."
      },
      "owner()": {
        "details": "Returns the address of the current owner."
      },
      "ownerOf(uint256)": {
        "details": "See {IERC721-ownerOf}."
      },
      "renounceOwnership()": {
        "details": "Leaves the contract without owner. It will not be possible to call `onlyOwner` functions anymore. Can only be called by the current owner. NOTE: Renouncing ownership will leave the contract without an owner, thereby removing any functionality that is only available to the owner."
      },
      "safeTransferFrom(address,address,uint256)": {
        "details": "See {IERC721-safeTransferFrom}."
      },
      "safeTransferFrom(address,address,uint256,bytes)": {
        "details": "See {IERC721-safeTransferFrom}."
      },
      "setApprovalForAll(address,bool)": {
        "details": "See {IERC721-setApprovalForAll}."
      },
      "supportsInterface(bytes4)": {
        "details": "See {IERC165-supportsInterface}."
      },
      "symbol()": {
        "details": "See {IERC721Metadata-symbol}."
      },
      "transferFrom(address,address,uint256)": {
        "details": "See {IERC721-transferFrom}."
      },
      "transferOwnership(address)": {
        "details": "Transfers ownership of the contract to a new account (`newOwner`). Can only be called by the current owner."
      }
    },
    "version": 1
  },
  "userdoc": {
    "kind": "user",
    "methods": {
      "safeMint(address,string)": {
        "notice": "function safeMint(address to, string memory uri) public onlyOwner { uint256 tokenId = _tokenIdCounter.current(); _tokenIdCounter.increment(); _locked[tokenId] = true; emit Locked(tokenId); _safeMint(to, tokenId); _setTokenURI(tokenId, uri); }"
      }
    },
    "version": 1
  }
}